S0160000436F6E74726F6C5F53797374656D2E7372656349
S11300000C9434000C94D8010C9451000C945100BD
S11300100C9451000C9451000C9451000C94510018
S11300200C9451000C9451000C9451000C94510008
S11300300C9451000C9451000C9451000C945100F8
S11300400C9451000C9451000C9451000C945100E8
S11300500C9451000C9451000C9451000C945100D8
S11300600C9451000C94510011241FBECFEFD8E022
S1130070DEBFCDBF11E0A0E0B1E0E2E6FFE002C0E8
S113008005900D92A631B107D9F721E0A6E1B1E0C0
S113009001C01D92A032B207E1F70E9428020C941D
S11300A0AF070C9400008FEF84B985B92FEF89EF67
S11300B090E0215080409040E1F700C0000093E2BE
S11300C095B983E085B9EFE3FCE93197F1F700C016
S11300D0000095B985B9EFE9FFE03197F1F700C069
S11300E0000095B985B98FE99FE00197F1F700C049
S11300F0000082E285B982E085B9EFE9FFE031973B
S1130100F1F700C000000895982F92959F70292F51
S1130110206225B995B98F70982F906295B985B9E9
S11301208FE193E00197F1F700C000008FE193E0C5
S11301300197F1F700C00000089580E180931A014F
S113014010921B010E94530088E20E9484008CE0FC
S11301500E94840086E00E94840080E80E9484005B
S11301600895982F92959F70292F206325B9906147
S113017095B98F70982F906395B9806185B98FE197
S113018093E00197F1F700C000008FE193E001973D
S1130190F1F700C000000895811105C080E8860FC2
S11301A00E94840007C080EC860F0E94840081E0D6
S11301B080931B0185ED8A95F1F7000008950F9354
S11301C01F93CF938C01C0E003C00E94B100CF5FA6
S11301D0F801EC0FF11D8081882321F090911A0120
S11301E0C91798F38C2F90E0C0911A012C2F30E09E
S11301F0215031092817390794F480911B0181118A
S11302000EC060E081E00E94CC0003C00E94B100F7
S1130210CF5FF801EC0FF11D80818111F7CFCF91F1
S11302201F910F91089599B181E0292F287093FDB2
S113023080E090911701891789F0909116019F5FD2
S113024090931601943060F080931701211103C03C
S113025081E080931F0110921601089510921601F7
S11302600895EAE7F0E0808187608083ACE7B0E03E
S11302708C9180648C938C918C9380818068808332
S11302800895CF93DF93EC01EAE7F0E08081806189
S1130290808380818064808380917A0084FFFCCF96
S11302A0EAE7F0E08081806180836091780070915A
S11302B0790080E090E00E94A20320E030E44CE961
S11302C050E40E9430040E94730379836883DF91B1
S11302D0CF9108958AB180648AB984B5816884BD58
S11302E085B5856085BD8DE487BD08952FEF829F18
S11302F0C001112464E670E00E949D0467BD089566
S11303008FB780688FBF089542E061E082E00E9469
S1130310950242E062E082E00E94950282E08093CE
S11303201E010895813089F018F08230E1F00895BB
S113033041E061E082E00E94CE0240E062E082E0BF
S11303400E94CE0210921E01089540E061E082E016
S11303500E94CE0241E062E082E00E94CE0281E08F
S113036080931E01089540E061E082E00E94CE0285
S113037040E062E082E00E94CE0282E080931E01AF
S1130380089580911E01811104C081E00E949201B0
S11303900895813021F480E00E949201089582E062
S11303A080931E0108958091180190911901089578
S11303B01F920F920FB60F9211242F933F934F93D6
S11303C05F936F937F938F939F93AF93BF93EF93B9
S11303D0FF93CF93DF931F92CDB7DEB7AE014F5F8C
S11303E05F4F62E081E00E94EE028981813051F426
S11303F080911801909119010196909319018093AD
S1130400180109C0809118019091190101979093E6
S11304101901809318010F90DF91CF91FF91EF9113
S1130420BF91AF919F918F917F916F915F914F9108
S11304303F912F910F900FBE0F901F901895E9E6F2
S1130440F0E08081836080838DB381608DBB0895EB
S1130450CF93DF93CDB7DEB764970FB6F894DEBFC2
S11304600FBECDBF0E9431010E94840181E00E9431
S1130470920140E064E082E00E94950241E068E07D
S113048082E00E9495020E946A010E949D000E94DF
S11304901F020E9480010E94130180911F01882382
S11304A021F00E94C10110921F0160E08CE191E0F3
S11304B00E94410180911D018F9380911C018F93B3
S11304C000E011E01F930F93CE0101967C019F93EE
S11304D08F930E94C50460911C0170911D0180E0FE
S11304E090E00E94A20320E030E048E452E40E943D
S11304F001030E947303862F0E94760160E080E06E
S11305000E94CC000E94D3019F938F931F930F935B
S1130510FF92EF920E94C504C7010E94DF000FB64C
S1130520F894DEBF0FBECDBFB6CF413091F018F0C6
S1130530423039F10895E82FF0E0EE0FFF1FE15F3C
S1130540FE4F0190F081E02D8081609568236083E7
S1130550089590E0880F991FFC01E15FFE4F019020
S1130560F081E02D2081362F309523232083FC0158
S1130570E75FFE4F0190F081E02D8081682B60835E
S11305800895E82FF0E0EE0FFF1FE15FFE4F0190AA
S1130590F081E02D8081682B60830895442319F055
S11305A0413079F00895E82FF0E0EE0FFF1FE75F88
S11305B0FE4F0190F081E02D808160956823608377
S11305C00895E82FF0E0EE0FFF1FE75FFE4F019064
S11305D0F081E02D8081682B60830895E82FF0E09E
S11305E0EE0FFF1FED5FFE4F0190F081E02D808143
S11305F0682319F4FA011082089581E0FA018083D6
S113060008950E9415030C94F6030E94EF0358F01A
S11306100E94E80340F029F45F3F29F00C94DF03C3
S113062051110C942A040C94E5030E94070468F306
S11306309923B1F3552391F3951B550BBB27AA2797
S113064062177307840738F09F5F5F4F220F331FD1
S1130650441FAA1FA9F335D00E2E3AF0E0E832D099
S113066091505040E695001CCAF72BD0FE2F29D09C
S1130670660F771F881FBB1F261737074807AB076E
S1130680B0E809F0BB0B802DBF01FF2793585F4FE3
S11306903AF09E3F510578F00C94DF030C942A0441
S11306A05F3FE4F3983ED4F3869577956795B795C5
S11306B0F7959F5FC9F7880F911D9695879597F9D0
S11306C00895E1E0660F771F881FBB1F6217730749
S11306D08407BA0720F0621B730B840BBA0BEE1F5E
S11306E088F7E09508950E940F0488F09F5798F0CA
S11306F0B92F9927B751B0F0E1F0660F771F881F23
S1130700991F1AF0BA95C9F714C0B13091F00E943C
S11307102904B1E008950C942904672F782F8827C1
S1130720B85F39F0B93FCCF3869577956795B39563
S1130730D9F73EF490958095709561957F4F8F4FD2
S11307409F4F0895E89409C097FB3EF490958095D7
S1130750709561957F4F8F4F9F4F9923A9F0F92F83
S113076096E9BB279395F695879577956795B79501
S1130770F111F8CFFAF4BB0F11F460FF1BC06F5FE7
S11307807F4F8F4F9F4F16C0882311F096E911C0F9
S1130790772321F09EE8872F762F05C0662371F01A
S11307A096E8862F70E060E02AF09A95660F771F2E
S11307B0881FDAF7880F9695879597F9089597F922
S11307C09F6780E870E060E008959FEF80EC0895F3
S11307D000240A941616170618060906089500241C
S11307E00A9412161306140605060895092E039496
S11307F0000C11F4882352F0BB0F40F4BF2B11F40A
S113080060FF04C06F5F7F4F8F4F9F4F089557FD68
S11308109058440F551F59F05F3F71F04795880F6A
S113082097FB991F61F09F3F79F087950895121601
S113083013061406551FF2CF4695F1DF08C01616AD
S113084017061806991FF1CF86957105610508945E
S11308500895E894BB2766277727CB0197F9089575
S11308600E9443040C94F6030E94E80338F00E94AB
S1130870EF0320F0952311F00C94DF030C94E503AF
S113088011240C942A040E94070470F3959FC1F369
S1130890950F50E0551F629FF001729FBB27F00D2A
S11308A0B11D639FAA27F00DB11DAA1F649F66277F
S11308B0B00DA11D661F829F2227B00DA11D621FCE
S11308C0739FB00DA11D621F839FA00D611D221F88
S11308D0749F3327A00D611D231F849F600D211D6C
S11308E0822F762F6A2F11249F5750409AF0F1F0EF
S11308F088234AF0EE0FFF1FBB1F661F771F881F58
S113090091505040A9F79E3F510580F00C94DF03AD
S11309100C942A045F3FE4F3983ED4F386957795CC
S11309206795B795F795E7959F5FC1F7FE2B880FFD
S1130930911D9695879597F9089597FB072E16F4C0
S1130940009407D077FD09D00E94B10407FC05D0BC
S11309503EF4909581959F4F0895709561957F4FD2
S11309600895AA1BBB1B51E107C0AA1FBB1FA617F2
S1130970B70710F0A61BB70B881F991F5A95A9F744
S113098080959095BC01CD010895AEE0B0E0EBEC0C
S1130990F4E00C9486070D891E8986E08C831A8303
S11309A009838FEF9FE79E838D83AE01475E5F4F80
S11309B06F89788DCE0101960E94E704EF81F88556
S11309C0E00FF11F10822E96E4E00C94A207ABE036
S11309D0B0E0EDEEF4E00C9478076C017B018A0141
S11309E0FC0117821682838181FFCCC1CE0101965E
S11309F03C01F6019381F70193FD859193FF819169
S1130A007F01882309F4BAC1853239F493FD8591B5
S1130A1093FF81917F01853229F4B60190E00E9411
S1130A20DE06E7CF912C212C312CFFE1F315D8F011
S1130A308B3279F038F4803279F08332A1F4232DAB
S1130A4020611DC08D3261F0803369F4232D216053
S1130A5016C0832D8260382EE32DE4603E2E2AC01A
S1130A60F32DF8601DC037FC2DC020ED280F2A306F
S1130A7040F08E32B9F436FC81C1232D2064322E2D
S1130A8019C036FE06C08AE0989E200D1124922ECD
S1130A9011C0EAE02E9E200D1124222EF32DF062C7
S1130AA03F2E08C08C3621F4832D8068382E02C076
S1130AB0883641F4F70193FD859193FF81917F017D
S1130AC08111B3CF982F9F7D9554933028F40C5FF8
S1130AD01F4F9FE399830DC0833631F0833771F044
S1130AE0833509F059C021C0F801808189830E5FE4
S1130AF01F4F88248394912C530113C02801F2E0E2
S1130B004F0E511CF801A080B18036FE03C0692D40
S1130B1070E002C06FEF7FEFC5010E94D3064C0165
S1130B208201F32DFF773F2E16C0280122E0420EEA
S1130B30511CF801A080B18036FE03C0692D70E01D
S1130B4002C06FEF7FEFC5010E94C8064C01F32D70
S1130B50F0683F2E820133FC1BC0822D90E0881682
S1130B609906B0F4B60180E290E00E94DE062A9471
S1130B70F4CFF50137FC859137FE81915F01B60111
S1130B8090E00E94DE0621102A9421E0821A910846
S1130B908114910471F7E8C0843611F0893641F567
S1130BA0F80137FE07C060817181828193810C5FF7
S1130BB01F4F08C060817181072E000C880B990BB0
S1130BC00E5F1F4FF32DFF763F2E97FF09C09095C0
S1130BD08095709561957F4F8F4F9F4FF0683F2EA2
S1130BE02AE030E0A3010E941A07882E861845C027
S1130BF0853731F4232D2F7EB22E2AE030E025C034
S1130C00932D997FB92E8F36C1F018F4883579F079
S1130C10B5C0803719F0883721F0B0C0E92FE06102
S1130C20BE2EB4FE0DC0FB2DF460BF2E09C034FEF1
S1130C300AC0292F2660B22E06C028E030E005C085
S1130C4020E130E002C020E132E0F801B7FE07C045
S1130C5060817181828193810C5F1F4F06C0608126
S1130C60718180E090E00E5F1F4FA3010E941A077C
S1130C70882E8618FB2DFF773F2E36FE0DC0232DC0
S1130C802E7FA22E891458F434FE0BC032FC09C006
S1130C90832D8E7EA82E05C0B82CA32C03C0B82C9F
S1130CA001C0B92CA4FE0FC0FE01E80DF11D808126
S1130CB0803321F49A2D997EA92E09C0A2FE06C084
S1130CC0B394B39404C08A2D867809F0B394A3FC3A
S1130CD011C0A0FE06C0B21488F4280C922C9B18F4
S1130CE00EC0B21460F4B60180E290E00E94DE0609
S1130CF0B394F7CFB21418F42B1802C0982C212CFB
S1130D00A4FE10C0B60180E390E00E94DE06A2FEBD
S1130D1017C0A1FC03C088E790E002C088E590E01A
S1130D20B6010CC08A2D867859F0A1FE02C08BE270
S1130D3001C080E2A7FC8DE2B60190E00E94DE06CD
S1130D40891438F4B60180E390E00E94DE069A9498
S1130D50F7CF8A94F301E80DF11D8081B60190E08C
S1130D600E94DE068110F5CF222009F442CEB6019E
S1130D7080E290E00E94DE062A94F6CFF601868196
S1130D80978102C08FEF9FEF2B96E2E10C949407BA
S1130D90FC010590615070400110D8F78095909542
S1130DA08E0F9F1F0895FC01615070400190011047
S1130DB0D8F7809590958E0F9F1F08950F931F93DA
S1130DC0CF93DF93FB01238121FD03C08FEF9FEFBE
S1130DD02CC022FF16C046815781248135814217D9
S1130DE0530744F4A081B1819D012F5F3F4F3183AC
S1130DF020838C93268137812F5F3F4F378326834F
S1130E0014C08B01EC01FB010084F185E02D0995F0
S1130E10892BE1F6D80116968D919C91179701962E
S1130E2017969C938E931697CE01DF91CF911F91C5
S1130E300F910895FA01AA27283051F1203181F148
S1130E40E8946F936E7F6E5F7F4F8F4F9F4FAF4FCE
S1130E50B1E03ED0B4E03CD0670F781F891F9A1FE1
S1130E60A11D680F791F8A1F911DA11D6A0F711D95
S1130E70811D911DA11D20D009F468943F912AE0A1
S1130E80269F11243019305D3193DEF6CF01089589
S1130E90462F4770405D4193B3E00FD0C9F7F6CFBA
S1130EA0462F4F70405D4A3318F0495D31FD405282
S1130EB0419302D0A9F7EACFB4E0A6959795879518
S1130EC077956795BA95C9F70097610571050895F7
S1130ED09B01AC010A2E06945795479537952795A3
S1130EE0BA95C9F7620F731F841F951FA01D08953B
S1130EF02F923F924F925F926F927F928F929F9226
S1130F00AF92BF92CF92DF92EF92FF920F931F9313
S1130F10CF93DF93CDB7DEB7CA1BDB0B0FB6F894C4
S1130F20DEBF0FBECDBF09942A88398848885F8404
S1130F306E847D848C849B84AA84B984C884DF8075
S1130F40EE80FD800C811B81AA81B981CE0FD11D59
S1130F500FB6F894DEBF0FBECDBFED010895F8942F
S1050F60FFCFBD
S1130F62256400230026002900250028002B0024E4
S1090F720027002A000024
S9030000FC
